:020000040800F2
:10000000C0280124ED040008236F00083F670008A2
:10001000216F00081D2A0008D99D0008000000007B
:100020000000000000000000000000002D04000897
:10003000092B00080000000089040008199400083A
:100040000B0500080B0500080B0500080B05000850
:100050000B0500080B0500080B0500080B05000840
:100060000B0500080B0500080B0500080B05000830
:100070000B0500080B0500080B0500080B05000820
:100080000B0500080B0500080B0500080B05000810
:100090000B0500080B0500080B0500080B05000800
:1000A0000B0500080B0500080B0500080B050008F0
:1000B0000B0500080B0500080B0500080B050008E0
:1000C0000B0500080B0500080B0500080B050008D0
:1000D0000B0500080B0500080B0500080B050008C0
:1000E0000B0500080B050008000000000B050008C8
:1000F0000B0500080B0500080B0500080B050008A0
:100100000B050008457200080B0500080B050008E8
:100110000B0500080B0500080B0500080B0500087F
:100120000B0500080B0500080B0500080B0500086F
:100130000B0500080B0500080B0500080B0500085F
:1001400000000000000000000000000000000000AF
:100150000B0500080B0500080B0500080B0500083F
:100160000B0500080B0500080B0500080B0500082F
:100170000B0500080B0500080B0500080000000037
:100180000B0500080B0500080B0500080B0500080F
:100190000B0500080B0500080B0500080B050008FF
:1001A0000B0500080B0500080B0500080B050008EF
:1001B0000B0500080B0500080B0500080B050008DF
:1001C0000B0500080B0500080B0500080B050008CF
:1001D0000B050008256F00080B0500080B0500083B
:1001E0000B0500080B0500080B0500080B050008AF
:1001F0000B0500080B0500080B0500080B0500089F
:100200000B0500080B0500080B0500080B0500088E
:100210000B0500080B050008D99500080B05000820
:100220000B0500080B0500080B0500080000000086
:100230000B0500080B050008000000000B05000876
:100240000B0500080B0500080B0500080B0500084E
:100250000B0500080B0500080B0500080B0500083E
:100260000B0500080B0500080B0500080B0500082E
:100270000B0500080B0500080B0500080000000036
:100280000B0500080B0500080B0500080000000026
:10029000000000000B05000800F002F800F0B6F8BE
:1002A0000AA090E8000C82448344AAF10107DA45D1
:1002B00001D100F0ABF8AFF2090EBAE80F0013F06D
:1002C000010F18BFFB1A43F00103184768900100A3
:1002D000889001000A444FF0000C10F8013B13F025
:1002E000070408BF10F8014B1D1108BF10F8015B8F
:1002F000641E05D010F8016B641E01F8016BF9D182
:1003000013F0080F1EBF10F8014BAD1C0C1B09D1D8
:100310006D1E58BF01F801CBFAD505E014F8016B4A
:1003200001F8016B6D1EF9D59142D6D370470000DC
:100330000023002400250026103A28BF78C1FBD8EE
:10034000520728BF30C148BF0B6070476E2900F0CC
:100350006486702900F05B82662911F09485652916
:1003600011F09185672911F08E85612911F08D8535
:1003700003681B0A28BF41F08001692900F0CC8185
:10038000642900F0C981752900F0C6816F2900F049
:100390005287782900F02782E92900F0ED86E429C8
:1003A00000F0EA86F52900F0E786EF2900F04F8794
:1003B000F82900F026820368DB0928BF41F080019C
:1003C000632900F06E86732900F07386E32901F03B
:1003D000B383F32901F0B883002070471FB511F0F3
:1003E0004DFD9DE8030000F077FD01F0C1FD040024
:1003F0000020002111F02CFD401C60600020002135
:1004000011F010FDE0601FBD10B510BD01F082FDC0
:100410001146FFF7E3FF0CF057FB01F05FFE03B45A
:10042000FFF7F2FF03BC01F08FFE00002C4B1968B0
:100430000868B0E8F04F80F30988BFF36F8F4FF082
:10044000000080F311887047000000000848006831
:10045000006880F308884FF0000080F3148862B6CB
:1004600061B6BFF34F8FBFF36F8F00DF00BF00BFD8
:1004700008ED00E0DFF80C00016841F47001016054
:10048000704700BF88ED00E0EFF30980BFF36F8F86
:10049000134B1A681EF0100F08BF20ED108A20E9D8
:1004A000F04F106009B44FF0500080F31188BFF393
:1004B0004F8FBFF36F8F10F07FFA4FF0000080F383
:1004C000118809BC19680868B0E8F04F1EF0100FD9
:1004D00008BFB0EC108A80F30988BFF36F8F7047B4
:1004E00030000024EFF30580704700000A48804781
:1004F0000A4880470A480047FEE7FEE7FEE7FEE7B6
:10050000FEE7FEE7FEE7FEE7FEE7FEE705480649F1
:10051000064A074B70470000112B0008E1940008C1
:1005200099020008C0C80024C0280124C0E80024A3
:10053000C0E8002470B5064600F0B2FC056806F17C
:100540000B0020F00704B4429CBF002070BD2B4676
:100550006A68BAB11068A04210D304F10801884259
:100560003CBF5068586007D351681019416011684A
:10057000091B016058601460101D70BD134652685D
:10058000002AE7D12146284600F092FC0028DED15F
:1005900070BD70B50446051F00F082FC0068002C99
:1005A00014BF446870BD002C18BFAC423CBF20464D
:1005B0006468F8D301680A18AA4218BF456003D1DD
:1005C0002A6805461144016028684119A1421CBFF0
:1005D0006C6070BD6168696021680844286070BD06
:1005E0007CB51D4616460C00009001D02044401EEC
:1005F000074B7B442A4669460190304600F027FDB0
:1006000005461CB10020694600F034FD28467CBD3B
:10061000890A00000FB41CB5084B06AA7B44694642
:100620000090059800F013FD04460020694600F094
:1006300021FD20461CBC5DF814FB0000550A00009B
:100640000FB47CB50C0009AA009001D02044401ED4
:10065000084B7B4469460190089800F0F8FC054679
:100660001CB10020694600F005FD28467CBC5DF801
:1006700014FB0000290A000070B504468569006873
:10068000C10601D5302600E02026C00707D070BD86
:10069000D4E9012130469047206A401C20626D1E3B
:1006A000F6D570BD70B5044685690078C00707D1DE
:1006B00070BDD4E9012120209047206A401C2062AF
:1006C0006D1EF6D570BD70B50C460546012A05D0E5
:1006D0002878800600D5EA69002302E0012305E0BE
:1006E0005B1C934202D2E05C0028F9D1A869E618AD
:1006F000C01AA861286A184428622846FFF7BCFF80
:1007000004E0D5E9012114F8010B9047B442F8D375
:100710002846FFF7C7FF70BD2DE9F04106460024CB
:1007200010687529314616A510D000F00BFC002882
:1007300002DA404213A507E031688A0701D512A505
:1007400002E0490704D511A5012401E000F003FCF3
:1007500000210A2206F1240709E0B0FBF2FCB0FBFD
:10076000F2F302FB1C00303078541846491C002874
:10077000F3D123462A463046BDE8F04100F0F4BBF1
:10078000000000002D0000002B00000020000000F1
:10079000F0B40D460188090502D5214C7C4402E0E5
:1007A0001F4C7C440E34002100F1240608E002F0C6
:1007B0000F071209E75D42EA03721B097754491CCF
:1007C00052EA0307F3D102780023120704D5702DF3
:1007D00006D009B1022311342246F0BC00F0C4BB9C
:1007E00001231034F8E770B504460D462146106821
:1007F00000F0B1FB024629462046BDE870400023C8
:10080000C6E7D21D22F00703D3E90023C0E703683F
:10081000126843F0200303600823C3610023B7E795
:10082000F48701002DE9F05F894604464FF0000A85
:10083000DFF874B1FB44C0F820A02046E168884787
:10084000002874D0252806D0D4E901219047206AD9
:10085000401C2062F1E700265F462046E168884799
:100860002028054607DB312D05D2781910F8200C19
:1008700008B10643F1E7B00701D526F00406C4F835
:100880001CA00027C4F818A02A2D09D0284609F07A
:10089000D1FC38B304EB8708303DC8F8185019E094
:1008A00059F8041B204604EB87029161E1688847F0
:1008B000012F054618D1E069002820DA26F020062D
:1008C0001DE0D8F8180000EB800005EB4000303840
:1008D000C8F818002046E1688847054609F0AAFCD8
:1008E0000028EED1012F0AD02E2D08D12046E16834
:1008F00088477F1C0546022F46F02006C4DBA0690E
:10090000002803DA404246F00106A061F00701D05A
:1009100026F010066C2D0BD0682D09D04C2D39D047
:100920006A2D35D0742D35D07A2D33D016E038E0CD
:10093000E1682F4620468847B842054609D16C2F0A
:1009400026D04FF48060E16806432046884705467C
:1009500004E06C2F1AD04FF4807006430DB3A5F15C
:100960004100192802D8203546F400664A46294637
:10097000204626604E46FFF7E9FC80B101280BD0E7
:10098000F61D26F0070000F1080956E74020E4E7CD
:100990008020D8E70020D6E706F104094DE7284675
:1009A00052E7206ABDE8F09F848701000FB400B5CC
:1009B0008DB010A9099000910B904FF0FF300A9074
:1009C00000200C90064878440690064878446A4611
:1009D00007900F9909A800F059FC0DB05DF814FBC1
:1009E000E3080000FB0800002DE9FF5F1D464FF003
:1009F000FF3B91464FF000085F46D5E90146A969E3
:100A000001987F1C8847296A824688470028F6D1CA
:100A1000BAF1FF3F0CD0002E24F4C06419DD60064B
:100A200014D5BAF12B0F09D0BAF12D0F0ED103E076
:100A3000584604B0BDE8F09F44F48064A969019869
:100A40007F1C8847761E8246002E02DDBAF1300FE9
:100A500003D0B9F1000F26D032E0A969761E0198C3
:100A60007F1C44F400748847002E824605DDBAF1ED
:100A7000780F06D0BAF1580F03D0B9F1000F10D09B
:100A80001EE0B9F1000F02D0B9F1100F18D1A96919
:100A9000761E01987F1C24F400748847824610203B
:100AA00002E0082000E00A20814609E0A96908FB6D
:100AB0000908761E01987F1C44F40074884782461A
:100AC000002E05DD4946504600F0CCFB0028EDDA4B
:100AD000E96901988847A00502D46FF00100A8E7F2
:100AE000E00725D1600613D5600502D5C8F10000E6
:100AF00000E0404629680A1D2A600968220501D5E0
:100B0000087015E0220701D5088011E008600FE0A9
:100B10002868011D29600068210502D580F8008041
:100B200006E0210702D5A0F8008001E0C0F80080AF
:100B300038467EE72DE9FF5F4FF0000899461446DE
:100B400046469169D2E901A7DDF838B00198884797
:100B5000054659EA0B0005D009E0A1690198761C09
:100B600088470546216A284688470028F5D1681C31
:100B700003D05FEACA7005D015E04FF0FF3004B033
:100B8000BDE8F09F2068011D2160D0F800800AE0D8
:100B90005FEACA7001D108F8015BA169761C01986F
:100BA0007F1E88470546002F1ADD681C18D0B9F152
:100BB000000F0DD0E81705EBD060421120F01F00A8
:100BC00059F822102A1A012090400142E0D107E092
:100BD000BBF1000FDCD12846216A88470028D7D016
:100BE000E16901988847BBF1000F07D1002E05DDB0
:100BF0005FEACA7002D1002188F80010A068B842EC
:100C000003DDBBF1000F03D017B16FF00100B6E7B1
:100C10003046B4E730B505460B462A4613F8014B7B
:100C200012F8010B08B1A042F8D01CB1002802D084
:100C30006D1CF1E7284630BD10B5431C02E010F8EA
:100C4000011B71B18107FAD14FF0013202C88C1A31
:100C50008C4314EAC211F9D0C01A0A0603D0C01E90
:100C600010BDC01A10BD0A0401D0801E10BD0902BB
:100C7000FCD0401E10BD032A40F2308010F0030C5F
:100C800000F0158011F8013BBCF1020F624498BFDF
:100C900011F801CB00F8013B38BF11F8013BA2F17C
:100CA000040298BF00F801CB38BF00F8013B11F0F7
:100CB000030300F02580083AC0F0088051F8043B97
:100CC000083A51F804CBA0E80810F5E7121D5CBF04
:100CD00051F8043B40F8043BAFF30080D20724BF37
:100CE00011F8013B11F801CB48BF11F8012B24BFCB
:100CF00000F8013B00F801CB48BF00F8012B70471A
:100D000010B5203AC0F00B80B1E81850203AA0E8A6
:100D10001850B1E81850A0E81850BFF4F5AF5FEADA
:100D2000027C24BFB1E81850A0E8185044BF18C98D
:100D300018C0BDE810405FEA827C24BF51F8043B34
:100D400040F8043B08BF7047D20728BF31F8023B88
:100D500048BF11F8012B28BF20F8023B48BF00F81C
:100D6000012B704701F0FF03114601B543EA03224E
:100D700042EA024200F0BCFA01BD02F0FF0343EA7E
:100D8000032242EA024200F0B3BA4FF0000200B57B
:100D9000134694469646203922BFA0E80C50A0E89E
:100DA0000C50B1F12001BFF4F7AF090728BFA0E84C
:100DB0000C5048BF0CC05DF804EB890028BF40F818
:100DC000042B08BF704748BF20F8022B11F0804F5A
:100DD00018BF00F8012B704710B5044610F0030F40
:100DE00008BF11F0030F40F015804FF0013E121FB5
:100DF000C0F20E8051F8043BA3EB0E0C2CEA030C5E
:100E00001CEACE1C08BF40F8043BF0D0A1F104015D
:100E100002F10402521E08DB11F8013B002B00F81E
:100E2000013BF7D1114600F061FA204610BD0000E9
:100E30004FF0013C50F8042B51F8043B9A4215D175
:100E4000A2EB0C03934313EACC130BD150F8042B01
:100E500051F8043B9A4209D1A2EB0C03934313EAE5
:100E6000CC13E7D04FF00000704700BFD01A01BA92
:100E7000B1FA81F101F0180122FA01F0CB40C1F181
:100E80002001DBB2C0B2C01A2CFA01F3D11A91438F
:100E900011EAC311E6D170477047704770470000F0
:100EA0000048704768C80024704770477047704713
:100EB00038B504460A4600206946AFF30080002892
:100EC00008BF38BD02460099204600F035FA0120DF
:100ED00038BD012001F016B8F8B5AFF30080054623
:100EE00000200C46102000BF0646A819A0420DD9CC
:100EF000324669460020AFF30080070008BF01F0CA
:100F000001F80098A04218BF0546C419FFF7C8FFB2
:100F100005600746F01D20F007004619284600F03E
:100F20000AF8B44208BFF8BDA21B31463868BDE8D4
:100F3000F84000F001BA00210160C0E901107047DB
:100F40001020704709684A0501D540B27047C905AD
:100F5000FCD500B2704709684A0501D5C0B2704798
:100F6000C905FCD580B270472DE9F0470D4699467A
:100F70009246044600F124080168880604D5E06919
:100F800021F01001216000E00120A84201DD471B93
:100F900000E00027A1697A1902EB0900081AA06194
:100FA0002078C00602D42046FFF766FB002608E042
:100FB000D4E901211AF806009047206A401C761CEB
:100FC00020624E45F4DB2078C0060AD52046FFF7A4
:100FD00053FB06E0D4E9012130209047206A401CF1
:100FE0002062381EA7F10107F4DC07E0D4E90121F3
:100FF00018F805009047206A401C2062281EA5F1C1
:101000000105F3DC2046FFF74DFB2078000602D5F2
:101010000220BDE8F0870120FBE711680268006A42
:10102000530501D508700AE0D30501D5088006E014
:10103000130603D5C217C1E9000200E008600120D1
:101040007047000001694A1C02610878704700B5CA
:101050008FB0CDE901310021059105497944CDE9F1
:10106000031011466846FFF7DDFB0FB000BD00001E
:10107000E5FFFFFF0A6802F8010B0A607047D1E93B
:1010800000239A4202D2531C0B601070704710B5B7
:10109000436913B1AFF3008001E0FFF714FB0120B7
:1010A00010BD127800F124010A7000224A7001225A
:1010B000EDE711684FF0FF32E9E700002DE9FF5F2F
:1010C00015468A460446DFF8AC80F8440027D8E984
:1010D00000103E46CDE9001010E03AF816106A46BE
:1010E00002A800F0EFFE411C07D02178890603D545
:1010F000E269391891420DD80744761C20788006A1
:1011000002D5E069B84205DDAE42E6DB3AF81600EA
:101110000028E2D1A069C01BA0612046FFF7ACFA0D
:10112000D8E90010CDE90010002017E03AF81810B7
:101130006A4602A800F0C6FEB0F1FF3F81460BD020
:1011400000250DF1080B05E0D4E901211BF805008D
:1011500090476D1C4D45F7D308F10100B042804621
:10116000E4DB206A384420622046FFF79BFABDE8A2
:10117000FF9F0000027F01002DE9F0418046D21D53
:1011800022F007020025D2E90002F52915A614D0A5
:10119000011E72F1000106DA0023D0EB030063EBBD
:1011A000020211A608E0D8F800108B0701D50FA69F
:1011B00002E0490701D50EA601251146002408F1D9
:1011C000240704E000F0D2F830323A55641C50EAAB
:1011D0000102F7D12B46324621464046BDE8F04198
:1011E000FFF7C2BE000000002D0000002B00000031
:1011F0002000000030B4002100F1240408E002F0D7
:101200000705D208303542EA4372DB086554491CB1
:1012100052EA0305F3D10468002310A2250707D57D
:10122000A40600D421B1C46901230DA2641EC461C7
:1012300030BCFFF799BE10B5044621461068FFF791
:101240008AFE02462046BDE810400023D2E7D21DA8
:1012500022F00701D1E90023CCE7000000000000E4
:10126000300000003A2800D2303820F02002412A15
:1012700001D3A2F13700884201D34FF0FF3070470D
:10128000026811441378016018467047D16005491F
:101290007944516104497944116200211161114678
:1012A00000F056BCEDFFFFFF5D010000426842B157
:1012B000016811F8013B23B1521EC0E90012184623
:1012C00070470121C160881E704742685AB1C368E7
:1012D000016843B983688B4205D0491E521CC0E99E
:1012E0000012002070474FF0FF3070474FF00002AF
:1012F0000429C0F0128010F0030C3FF448ADCCF18B
:10130000040CBCF1020F18BF00F8012BA8BF20F895
:10131000022BA1EB0C01FFF73ABD5FEAC17C24BFB1
:1013200000F8012B00F8012B48BF00F8012B704793
:101330000048704760C80024034640688C46002877
:1013400018BF88423CBF03464068F8D31868184469
:10135000884207D00CF1030020F00700001D411A5D
:10136000521A0146081D0A60FFF713B930B5B0F1F3
:101370000A024FEA900E71F100034EEA817EB0EB53
:101380000E0061EB91014FEA101E4EEA017E10EB58
:101390000E0041EB11114FEA102E4EEA016E10EBD8
:1013A0000E0041EB11214FEA104E4EEA014E10EBB8
:1013B0000E0041EB1141401841F100014FEAD0000D
:1013C00040EA41704FEAD10110EB80054FEA8104F9
:1013D00044EA907444EB01046D1944EB0404521B7D
:1013E000A3414FF0000348BF0A3200D530BD401C76
:1013F00041F1000130BD10B5044600F0B1FD0068B8
:10140000005D00F0010010BD70472DE9FF4F0C4654
:101410001E464FF0FF378BB0D2E90001DDF8608047
:101420000A908A46C1F30A5505B93D46002108468F
:101430004FF00000BAF1000F00F4400005DA00EBB5
:1014400080004FF4400101EA50004FEA9059B9F191
:10145000010F00DDB9460A9850EA4A000ED044F662
:101460001050A5F2FF3545432F14B8F1000F1ED0E0
:101470007542291E1EDDC9F100021CE0B8F1010F02
:101480004FF0000001D0302103E0F24305E0215489
:10149000401CB042FBDB30460022002121540B9956
:1014A000C1F80880C1E900200FB0BDE8F08FBD1B76
:1014B0006D1CDEE74A4600DA694206A800F09CFD92
:1014C00006AB93E8070003AB83E8070050460A9990
:1014D00000F060FE8DE80700A0F500501F38009076
:1014E0000398002D0ADD42F21F014A4608440023FA
:1014F00003A90390684601F0C9F809E0A0F500507F
:101500004A461F38002303A90390684601F0D3F828
:101510008DE807000004000C03D04FF0FF304108B5
:1015200000E01046B8F1000F03D0002200921546EB
:101530001EE0751E05D4FFF719FF303262556D1E8F
:10154000F9D5B3460122084302D000227F1C04E0F3
:101550002078302801D100227F1E002A099784D0EC
:101560001DE0112D07DAFFF701FF303262556D1CC7
:1015700050EA0102F5D1084302D00098C8B10EE04C
:101580000021681E05E0235C625C63542254401E07
:10159000491C8142F7DBAB46A81B401E0990002086
:1015A00004F80B000B98099AC0F80880C0E9002BDA
:1015B0007AE711264FF0000857E72DE9F04F8846EB
:1015C0000446D21D22F0070191B0D1E90001CDE916
:1015D0000A0108F07DFD02460B98C00F01D02D20B6
:1015E00007E02068810701D52B2002E0202101EAD5
:1015F000C000032A099001D0072A05DB03464146B3
:10160000204600F0B9FC0BE12078800601D5E069A6
:1016100000E00620B8F1650F814606D0B8F1660FEC
:1016200018D0B8F1670F70D131E00020B9F1110F77
:10163000009001DB112301E009F101030AAA01A9CD
:101640000CA8FFF7E2FEDDE90C70002609F10105A8
:10165000834647E001204B4600904FF000470AAA1E
:1016600001A90CA8FFF7D1FEDDE90DB00C995D468C
:10167000002610B909F101000D18B9EB050003D4DB
:10168000C0F1FF3609F10105A5EB09002BE0B9F126
:10169000010F01DA4FF001090020B9F1110F00909C
:1016A000484601DD112300E003460AAA01A90CA85F
:1016B000FFF7ABFEDDE90C704D460026834620782F
:1016C00000070AD4AB4500DA5D4601A8012D04DD10
:1016D000411911F8011C302907D04F4502DA17F1E2
:1016E000040F04DA012082460FE06D1EEEE7002FA2
:1016F00002DCED1B3E4403E0781CA84200DD7D1CAB
:10170000B81B00F1010A4FF000472078000703D40E
:10171000AA4501DB4FF0FF3A0021B7F1004F0DF170
:1017200043088DF8431024D002202B23002F01DA28
:101730007F422D230A21021EA0F1010000DC5FB1CF
:1017400097FBF1FC97FBF1F201FB1C7C17460CF1B7
:10175000300C08F801CDEEE7A8F1010003702188F4
:10176000090501D5452100E06521A0F1010800F837
:10177000011C09980FA9A1EB0807FF1D00B101206A
:10178000411901EBEA70A1693844081A401EA061B2
:101790002078C00602D42046FEF76EFF099828B1D3
:1017A000D4E901219047206A401C20622078C006BD
:1017B00022D52046FEF760FF1EE0002E04DBB34575
:1017C00002DD01A8805D00E03020D4E901219047CE
:1017D000206A401C2062761CAAF101005FEA000A20
:1017E0000AD100F0C5FBC0680168405CD4E9012162
:1017F0009047206A401C2062281EA5F10105DCDC10
:1018000007E0D4E9012118F8010B9047206A401C39
:101810002062381EA7F10107F3DC2046FEF742FFE5
:10182000032011B041E600002DE9F04F04460D46BB
:10183000D21D22F0070089B0D0E90097484639460A
:1018400008F046FC0246F80F01D02D2307E020687F
:10185000810701D52B2302E0202101EAC0038DF886
:1018600020300BB1012000E00020032A824601D085
:10187000072A04DB2946204600F07EFB3FE1207862
:10188000800601D40D2500E0E569C7F30A560D2D49
:1018900049DA00214FEA175B08464FF00000002F9D
:1018A00000F4400007DA00EB80004FF4400100EB49
:1018B000D07001EA60008115012901DD4FF0FF3190
:1018C00000224FEA850CBCF1180F06D31346ACF189
:1018D00018004FF08052C24003E04FF4801323FA07
:1018E0000CF30CF10C0CBCF1200F04D3ACF1200C68
:1018F00009FA0CF001E007FA0CF000294FF000485B
:1019000001DD18B90FE00ED140450CD319EB0209E7
:101910005F4121B9404502D19F4329EA0209BBEB4F
:10192000175F00D0761C2088000502D57B487844DC
:1019300002E07A487844193808AA302302F80A30BD
:10194000037C0AF10101002E0AF1020A53546A468F
:1019500002DC4FF0300101E04FF031014FF001089F
:101960008DF8001002D0A6F2FF3603E059EA4701D5
:1019700000D06B4E002D02DC2178090704D54FF012
:1019800002082E218DF80110C44600210BE0C7F398
:1019900003433F01C35C491C6D1E02F80830052952
:1019A00008F1010801DA002DF1DC00210CE000EB68
:1019B0001973491C1B786D1E082902F808304FEA7C
:1019C000091908F1010801DA002DF0DC21688B0605
:1019D00002D516E0A8F10108E04505DD02EB080399
:1019E00013F8013C302BF5D0B8F1000F09DD02EB04
:1019F000080313F8013C2E2B03D1090701D4A8F1E9
:101A00000108002D05DD3E2102F808106D1E08F1C9
:101A10000108407C002E02F8080008F1010804DAF1
:101A20002D20764202F8080002E02B2002F8080080
:101A30000A214FF47A70864208F101080BDB96FB0D
:101A4000F0F3303302F8083096FBF0F308F10108A8
:101A500000FB136601E0642E0CDB642096FBF0F3C0
:101A6000303302F8083096FBF0F308F1010800FB70
:101A7000136601E00A2E06DB96FBF1F0303002F827
:101A8000080008F1010896FBF1F001FB106030300E
:101A900002F80800A16908F1010808EB050202EB51
:101AA0000A00081AA0612078C00602D42046FEF77A
:101AB000E3FD216A08AE01EB0A00206204E0D4E9EC
:101AC000012116F8010B9047BAF1010AF7D22078EC
:101AD000C00602D52046FEF7CFFD6E4609E016F897
:101AE000010B3E280FD0D4E901219047206A401C09
:101AF0002062B8F10108F2D22046FEF7D3FD09B00A
:101B00000320BDE8F08F206A2844206203E0D4E976
:101B10000121302090476D1EEBD3F8E7B976010024
:101B200002FCFFFF10B5436913B1AFF3008001E081
:101B3000FFF7C4FA012010BD128800F1240182844D
:101B40000022C2840122EDE711684FF0FF32E9E77D
:101B50002DE9F34F4FF0000A0C4656468DB0012098
:101B60000C9001F10C000B9062690B9801219047D9
:101B7000051E2DD0252D2CD0216A8847C0B1626961
:101B80000B9801219047216A88470028F7D16269A4
:101B9000411E0B98904700E0761CA1690D9888477C
:101BA000216A88470028F7D1E1690D988847DBE76B
:101BB000A1690D988847A842074601D1761CD3E752
:101BC000E1690D9888477F1C02D1BAF1000F6FD0F0
:101BD0006CE162690B9800273D46394690472A28F8
:101BE00004D162690B98012190470125DFF8D0826A
:101BF00062690B9801219047A0F130010A290AD2AD
:101C00004745E5DC07EB870100EB4107303FDFD4B8
:101C100045F01005ECE7E90601D46FF000476C28A9
:101C20000AD04C2814D0682815D06A280DD0742802
:101C30001CD07A281AD01DE062690B9801219047C8
:101C40006C2802D045F0040514E045F002050DE0D3
:101C500045F020050AE062690B9801219047682849
:101C600002D045F0080505E045F4006562690B986F
:101C700001219047C4E9015765283DD019DC582857
:101C80007AD00CDC452837D004DC252826D0412822
:101C90009ED131E046282FD0472899D12CE05B28EF
:101CA00077D0612828D063287CD0642823D15AE0DB
:101CB000F7E06F2848D008DC66281DD067281BD0C5
:101CC000692821D06E2816D127E0702845D07328C6
:101CD00068D0752847D078280DD14DE0A1690D98BE
:101CE0008847252805463FF469AFE1690D98884784
:101CF0006D1C3FF46AAFD9E00D9923466A466FF038
:101D00000100AFF30080C6E045F0400023464FF0ED
:101D100000026060A80736D43EE0E8077FF447AFD2
:101D20002068011D21600068290501D506701BE7A8
:101D3000290701D5068017E7A90703D5F117C0E9E0
:101D4000006111E706600FE745F0400023464FF0C1
:101D500008026060A80716D41EE040F60E0125EACE
:101D60000100606016E045F0400023464FF00A0293
:101D70006060A80707D40FE045F040006060A80746
:101D800008D5234610220D996FF00100AFF30080B3
:101D900081E007E0102223460D996FF00100FEF765
:101DA00023FE78E04FF0000963284F46C8464B46B3
:101DB000CB4602D05B2807D039E02079C00601D499
:101DC0000120A060012732E06269D4F80CB00B98C2
:101DD000012190475E2807D14FF001094946626909
:101DE000D4F80CB00B989047216939B900210A4604
:101DF00003AB43F82120491C0829FADBD8B3216939
:101E000049B308F1010862690B98012190475D28E8
:101E1000F4D1B9F1000F09D0002003A951F8202016
:101E2000D24341F82020401C0828F7DB03AB20698F
:101E3000002820794FEA40701ED05B462246CDF83C
:101E40000080CDE901970D9900286FF0010020DA9C
:101E5000AFF300801FE0C11703AA00EBD1614B1163
:101E600021F01F0102EB8302411A13680120884010
:101E700003431360C7E719E00D99224600286FF06D
:101E80000100009702DAAFF3008004E0FEF752FE93
:101E900001E0AFF3008000280ADA401C06D10C985C
:101EA00020B14FF0FF300FB0BDE8F08F5046FAE799
:101EB000E90701D10AF1010A064400200C9053E61B
:101EC000CCCCCC0C70B516460C46054600F048F854
:101ED000036893F80101012806D0FF2C0FD8185D84
:101EE00068B101202C7070BDD3F80701324621463D
:101EF00003F2071303442846BDE8704018474FF02B
:101F0000FF3070BD10B500F0F7F8BDE8104000F0EC
:101F1000EEB870477546FFF70BFAAE460500694606
:101F2000534620F00700854618B020B5FEF7EEFABC
:101F3000BDE820404FF000064FF000074FF00008CA
:101F40004FF0000B21F00701AC46ACE8C009ACE84B
:101F5000C009ACE8C009ACE8C0098D467047000074
:101F600010B500F005F8001D10BD00BFE5FE000033
:101F70000048704780C800242DE9F0411F46044600
:101F800003260168072A01F4006004DB08B116A5E6
:101F900005E016A503E008B115A500E015A521F0A0
:101FA00010002060A069C01EA0610FB1401EA0619A
:101FB0002046FEF761FB4FB1D4E901213846904736
:101FC000206A401C2062C01C206206E0206AFAE7FA
:101FD000D4E9012115F8010B9047761EF8D220466E
:101FE000FEF760FBBDE8F0814E414E006E616E0071
:101FF000494E4600696E66002DE9F0478146164657
:102000008AB0354878440DC88DE80D0032487844D0
:10201000801C03AC0DC884E80D0041F69B300844D9
:10202000372190FBF1F290FBF1F5A5F1800501FB62
:1020300012041B3C02D56442012000E00020DFF8BE
:1020400098A080460027FA44AAF1BE0A0EE0E007F5
:102050000AD03246684607EB470101230AEB8101AB
:1020600000F029FB8DE8070064107F1C002CEED1E6
:10207000194F7F44AE3F19E0E80715D007EB041075
:102080000DF1180A90E80E008AE80E00C068F042D0
:1020900001D1981908903246012306A903A800F03F
:1020A0000AFB03AB83E807006D10641C002DE3D12D
:1020B0004FF0010332466946B8F1000F03A802D081
:1020C00000F0E4FA01E000F0F6FAC9E90001C9F80D
:1020D00008200AB0BDE8F0877470010010B504460E
:1020E000AFF300802046BDE81040FEF798B9002805
:1020F00001D000F029B8704710B5012805D00021A3
:1021000003A000F027F8012010BD09A1F8E70000A6
:1021100053494752544D454D3A204F7574206F66D0
:102120002068656170206D656D6F72790000000038
:102130003A2048656170206D656D6F727920636F1C
:10214000727275707465640001491820ABBEFEE7B9
:102150002600020070B505460C460A2000E06D1C02
:1021600000F011F835B128780028F8D102E0641C9D
:1021700000F009F814B120780028F8D1BDE87040CB
:102180000A20AFF3008008B569468DF800000320EF
:10219000ABBE08BD5FEA400C08BF91F0000F4FEAEC
:1021A0008C234FEAC12243EA51514FEA1C5018BF19
:1021B00000F5F0404FEA300018BF41F000415FEAFF
:1021C0006C5C00F02980BCF1FF3F08BF40F080400C
:1021D0007047130C06BF12044FF0100C4FF0000CA8
:1021E000130E04BF12020CF1080C130F04BF1201EE
:1021F0000CF1040C930F04BF92000CF1020CD30FEE
:1022000004BF52000CF1010C11464FF00002A0F186
:102210001F00A0EB0C00704711F0004F08BF704783
:1022200031F000413FF4D5AF0B0C06BF09044FF06D
:10223000100C4FF0000C0B0E04BF09020CF1080C3F
:102240000B0F04BF09010CF1040C8B0F04BF8900B4
:102250000CF1020CCB0F04BF49000CF1010CCCF1C6
:102260002003A0EB0C0022FA03F302FA0CF241EA7D
:10227000030100F10100704720F07F4C80EA030069
:1022800023F07F47ACEB070303F57C5300F00040DD
:1022900003F1FF032DE980494FEA154B09B44FEADA
:1022A000144325EA0B4E24EA03480FF2042606EBFA
:1022B000132749083E785FEA320203FB0667C7F539
:1022C000000707FB06F64FEA54374FEAD64606F1F9
:1022D000020607FB066CCCF1005C4FEA1C472CEAB7
:1022E000074C07FB06F40CFB06F504EB15464FEA1A
:1022F000961634BF00204FF000404FEAD13706FB5E
:1023000007FC4FEA1C4C0CFB0BF7D21B03FB0CF732
:1023100061EB07010CFB0EF7B0EB074072EB1742C5
:102320000CFB08F734BFA2EB0742B2EB074261EBAC
:1023300017414FEA0C444FEA910706FB07FC4FEAAE
:102340001C4C0CFB0BF7B0EBC74072EB573203FB96
:102350000CF734BFA2EBC742B2EBC74261EB573177
:102360000CFB0EF7B0EBC70072EB57720CFB08F7D3
:1023700034BFA2EBC702B2EBC70261EB5771039FF8
:102380004FEA816141EA921104EBCC044FEAD13764
:102390004FEA826206FB07FC42EA90124FEA806035
:1023A0004FEA1C4C0CFB0BF7D21B03FB0CF761EB49
:1023B00007010CFB0EF7B0EB074072EB17420CFB6A
:1023C00008F734BFA2EB0742B2EB074261EB1741BB
:1023D0004FEA8C554FEA910704EB9C2406FB07FC5F
:1023E0004FEA1C4C0CFB0BF7B0EBC74072EB5732BB
:1023F00003FB0CF734BFA2EBC742B2EBC74261EB61
:1024000057310CFB0EF7B0EBC70072EB57720CFBA9
:1024100008F734BFA2EBC702B2EBC70261EB5771FA
:1024200015EB4C254FEA816141EA92114FEA826235
:102430004FEAD13742EA901206FB07FC44F1000450
:102440004FEA80604FEA1C4C0CFB0BF7D21B03FBDE
:102450000CF761EB07010CFB0EF7B0EB074072EBDA
:1024600017420CFB08F734BFA2EB0742B2EB07425E
:1024700061EB174115EB1C154FEA813141EA92419E
:102480004FEA823242EA90424FEA80304FEA0C76BD
:1024900044F1000448EA03434EEA0B484FF0000EB3
:1024A000B2EB080C71EB030724BF624639464EEBD2
:1024B0000E0E4FF0000B0018524149414BEB0B0B35
:1024C000B2EB080C71EB03077BF1000B24BF6246F3
:1024D00039464EEB0E0E4FF0000B001852414941A9
:1024E0004BEB0B0BB2EB080C71EB03077BF1000B12
:1024F00024BF624639464EEB0E0E51EA020718BF62
:1025000046F0010616EB0E7655F1000254F100017B
:1025100003D5BDE88901BDE80088BDE88901BDE8B3
:102520000048B619524141EB0101A3F10103704784
:1025300080807F7E7D7C7B7A797877767675747300
:10254000727171706F6E6E6D6C6C6B6A6A696868BF
:10255000676666656464636362616160605F5F5E55
:102560005E5D5D5C5C5B5B5A5A59595858575756CB
:102570005655555554545353525252515150505030
:102580004F4F4F4E4E4D4D4D4C4C4C4B4B4B4A4A82
:102590004A494949484848474747474646464545C6
:1025A00045444444444343434342424242414141FF
:1025B000002B9C4630D477002BD01CB54FEA370750
:1025C00003B44FF010004FF01001BAF1000F06D025
:1025D000BCF1000FDCBF40F0080040F008014FF0F4
:1025E00000000FBCBDE810400BF1010BBBF1010F67
:1025F00008BF5FEA170722BF12F1010211F10101C2
:102600004FF0004143F1000300F0004043EA0000B6
:102610007047F9D35708D0E746EA064613F1400F52
:102620004FEA16461FDD13F1200FDFBF16430A469F
:10263000002120335B42BED0C3F1200746EA0646A4
:1026400002FA07F74FEA164646EA0706C3F12007E3
:1026500022FA03F201FA07F721FA03F14FF000031F
:1026600042EA0702A7E746EA020646EA06464FEABA
:10267000164646EA0106BCBF46EA0646360C4FF04F
:1026800000034FF000024FF0000194E72DE9804C69
:102690009A46934670B491E8380007C831EA400C76
:1026A00048BF34EA430C03D5FFF7E6FDFFF780FF90
:1026B000F0BCBDE8008C2DE9804C9A46934670B47E
:1026C00091E8380007C810F0804F08BF13F0804F22
:1026D00003D100F005F8FFF76BFFF0BCBDE8008CFC
:1026E00020F07F4780EA030023F07F4C07EB0C03C8
:1026F000A3F57C5300F00040A3F1FE0392F0000F1D
:1027000000F0B38095F0000F00F077802DE90149CB
:102710004FEA11404FEA144621EA004800FB06FC4C
:1027200024EA064708FB06F607FB08F800FB07F754
:1027300018EB06484CEB164C4FEA124B18EB0748C7
:102740004FEA15464CEB174022EA0B4E0BFB06FCFA
:1027500025EA06470EFB06F607FB0EFE0BFB07F706
:102760001EEB064E4CEB164C4FF000061EEB074ED0
:102770004CEB174B18EB0B0840F1000018EB0E0B5D
:1027800058EB000840F100008F1A4FF000013CBFE9
:10279000C943661B14BFB5EB040C00213CBFC94301
:1027A000F61B4FEA17444EEA8E0E27EA04454FEA1D
:1027B0001C4704FB07622CEA074C05FB07F70CFBE0
:1027C00005F604FB0CFC16EB074642EB174216EB32
:1027D0000C4642EB1C421BEB060658EB0202414141
:1027E00046EA9E0601D5BDE80189B619524141EB82
:1027F0000101A3F10103BDE801894FEA14454FEA45
:10280000114724EA054621EA074C05FB07F406FBBD
:1028100007F70CFB06F105FB0CFC11EB074144EB41
:1028200017444FEA124711EB0C4144EB1C4422EAD7
:10283000074C05FB07F206FB07F70CFB06F605FB4A
:102840000CFC16EB074642EB174216EB0C4642EB2C
:102850001C456A1854F1000148BF7047B61952412F
:1028600041EB0101A3F10103704795F0000F37D050
:102870004FEA11424FEA144721EA024624EA074C84
:1028800002FB07F106FB07F70CFB06F402FB0CFC4E
:1028900014EB074441EB17414FEA154714EB0C4486
:1028A00041EB1C4125EA074C02FB07F506FB07F745
:1028B0000CFB06F602FB0CFC16EB074645EB174536
:1028C00016EB0C4645EB1C42121951F1000148BFB2
:1028D0007047B619524141EB0101A3F10103704762
:1028E0004FEA14454FEA114724EA054621EA074C0E
:1028F00005FB07F106FB07F70CFB06F24FF000069D
:1029000005FB0CFC12EB074241EB174112EB0C42AA
:1029100051EB1C4148BF7047921841EB0101A3F1F4
:102920000103704710B504480124802100F0BAFA71
:1029300000B10024204610BD00180258014601488D
:1029400002F004BD0C0E0024044810B502F010FD86
:10295000042801D0012010BD002010BD0C0E002461
:1029600010B500F015F8012801D0022010BD07486D
:1029700002F09AFE040006D104484FF4804102F0B0
:1029800041FB00B10124204610BD00000C0E0024C4
:1029900008B501208DF80000FFF7C4FF10B9002032
:1029A0008DF800009DF8000008BD000013460A469F
:1029B00010B500240146034802F07CFF00B1012459
:1029C000204610BD0C0E002408B5012069460023E6
:1029D000ADF800001A46024840680AF0C7F908BD81
:1029E0007001002413460A4610B50024014603482E
:1029F00002F0D4FF00B10124204610BD0C0E0024CB
:102A000008B5022069460023ADF800001A460248C6
:102A100040680AF0ABF908BD70010024FEE7000031
:102A20000448017809B1407808B1002070470120BE
:102A3000704700004C01002470B5104D0C462978F9
:102A400000291AD06978002917D1002815D0002C48
:102A500013D04FF400718C4200D90C46014608484F
:102A600022460CF041F8012068702346044ABDE874
:102A70007040812100200CF021BD70BD4C0100246C
:102A8000E809002410B5184C002020706070A07078
:102A900016490CF061F9164900200CF0D9F80146EE
:102AA00000200CF0B5F8124900201C310CF0D0F8D1
:102AB000014600200CF0ACF8211D00200CF07CF841
:102AC000002004F10C010CF077F80A4A00200A49B2
:102AD0000DF0D2F80120A070652000F0D9FABDE811
:102AE0001040652000F0F2BA4C0100248C8E0108E1
:102AF00008BF00248DF800080000084001488078D5
:102B0000704700004C010024704772B6FEE70000D9
:102B1000054805490839026842F002020260086867
:102B20008004FCD5704700000C480258002200F0D9
:102B300001B800000E4B70B505465C7A0120002CF0
:102B400014D15E7A03F108009C555E7A03EB860689
:102B500075605D7A2A54587A421C5A723A232F22A1
:102B6000303008704B7020468A70CC7070BD000009
:102B700054C800240848002208B500F124030121AC
:102B8000009041F201000EF0E1FB04490860BDE84D
:102B900008400BF0D3B90000A80F00241000002457
:102BA000F8B5194C2668002E1ED000281CD000292C
:102BB0001AD0164D2A68D20517D0002200920A4674
:102BC0006B46014630460EF0EAFC606810B1012108
:102BD0000AF0C4F90098002806D04FF08050286011
:102BE000BFF34F8FBFF36F8FF8BD0A460146002336
:102BF00030460EF053FC60680028F5D0BDE8F84080
:102C000001210AF0ABB900001000002404ED00E03F
:102C1000A0B00AF029FA0E4E4FF0FF386F467060F0
:102C20000021012042460AF0D3F9306800238022B7
:102C300069460EF0C8FB0024054603E0385D09F044
:102C4000CBFD641CAC42F9D3002DEED1E8E70000C7
:102C50001000002470B5044600F03CF90546601CE5
:102C600002D004480078044400F034F9401BA0422C
:102C7000FAD370BD1C0000242DE9F84F03247D4DCC
:102C800000234FF001094FF0B04B4FF00F0AE9E07D
:102C900009FA03F73A4076D00E7906F00306012EC2
:102CA00001D0022E18D1D0F808C04FEA430ECE68EA
:102CB00004FA0EF82CEA080C06FA0EF646EA0C06A0
:102CC0008660D0F804C00E792CEA070CC6F3001613
:102CD0009E4046EA0C0646600E79F643B6070BD0D6
:102CE000C6684FEA43088F6804FA08FC26EA0C0617
:102CF00007FA08F73743C7600E7906F00306022E7D
:102D000012D1DE080F694FEA437C00EB8606B64617
:102D1000366A4FEADC6C0AFA0CF807FA0CF726EA76
:102D200008063743CEF820700F7906684FEA43084B
:102D300007F0030704FA08FC07FA08F726EA0C066E
:102D4000374307604E6816F4403F1CD04A4E376840
:102D500047F00207376036689F0706F002060096C4
:102D600023F0030606F1B046B6463F0FD6F80864D6
:102D7000DFF808810AFA07FC404526EA0C0603D171
:102D80004FF0000C41E06CE0DFF8F4C0604502D188
:102D90004FF0010C39E0DFF8ECC0604502D14FF094
:102DA000020C32E0DFF8E0C0604502D14FF0030CC6
:102DB0002BE0DFF8D8C0604502D14FF0040C24E0CE
:102DC000DFF8CCC0604502D14FF0050C1DE0DFF804
:102DD000C4C0604502D14FF0060C16E0DFF8B8C061
:102DE000604502D14FF0070C0FE0DFF8B0C060453E
:102DF00002D14FF0080C08E0DFF8A4C0604502D112
:102E00004FF0090C01E04FF00A0C0CFA07FC4CEAF9
:102E1000060CCEF808C44F68DBF80060FF0226EA13
:102E2000020600D516435F46CBF80060D1F804C017
:102E3000DBF804605FEA8C2C26EA020600D5164314
:102E40007E606E684F6826EA0206BF0300D516430F
:102E50006E602E684F6826EA0206FF0300D516430F
:102E60002E605B1C0A6832FA03F67FF411AFBDE8EE
:102E7000F88F000080000058F44402580000025807
:102E80000004025800080258000C025800100258B2
:102E90000014025800180258001C02580020025862
:102EA000002402580069084000D0012070470AB190
:102EB000816170470904FBE702480068C0F30B001A
:102EC000704700000010005C01480068000C70476B
:102ED0000010005C01488068704700001C0000245E
:102EE0000248816802781144816070471C00002408
:102EF000032010B500F018F901F08CFB0F4A1049BF
:102F000014681368C4F3032203F00F038A5CC95CDE
:102F100002F01F0201F01F01D0400A4A20FA01F11D
:102F20001160094908600F2000F010F808B1012075
:102F300010BD00F09BF8002010BD0000184402589E
:102F4000201F01082C0000242800002410B51028A0
:102F500004468AB02AD200220146762000F0C4F846
:102F6000762000F0B3F8154804601548016841F474
:102F700080210160006808A900F48020099068465B
:102F800001F0D4FA01F034FB0E49400000220E4C4F
:102F9000B0FBF1F10D4840F2E7330460C0E90332C1
:102FA000491EC0E9011203F019F910B101200AB05D
:102FB00010BD064803F044F9F9E7000020000024A2
:102FC000F044025840420F00004801405C0F0024CA
:102FD000154BF0B5083B427813491A600B680A1F7D
:102FE00023F001030B6043681360057BC67A827A85
:102FF000437B2D07847B45EA0665C77B90F809C0B3
:10300000067A90F800E045EAC24040EA834040EA90
:10301000444040EA074040EA0C2040EA460040EACB
:103020000E000860F0BD0000A0ED00E0BFF35F8F70
:10303000044800210368034A23F48033036070329C
:103040001160704724ED00E0074A40F00100064996
:1030500070321060086840F480300860BFF34F8F12
:10306000BFF36F8F7047000024ED00E0074882B087
:10307000016841F002010160006800220F2100F0A8
:1030800002000090901E02B000F02EB8F4440258E6
:10309000002809DB410900F01F028900012001F12D
:1030A000E0219040C1F88002704700280DDB410903
:1030B00000F01F028900012001F1E0219040C1F8D9
:1030C0008001BFF34F8FBFF36F8F7047002809DB7C
:1030D000410900F01F028900012001F1E021904028
:1030E000C1F80001704700000E4BF0B41B680D469C
:1030F000C3F30223C3F10706042E00D90426191DC9
:10310000072901D2002300E0DB1E012404FA06F1A6
:103110009C40491E2940641E994014402143F0BC44
:1031200006F0EEBF0CED00E0064900F0070210B516
:103130004FF6FF040868044B204040EA0220184381
:10314000086010BD0CED00E00000FA05F0B5B7B066
:103150000446142130A8FDF718FEC0216846FDF78B
:1031600014FE25492068884244D120220021119173
:103170004FF480200D4602240426C711CDE90A42EF
:10318000CDE90001032368464FF4001CCDF888C048
:10319000CDE90C36CDE90E4700F0C4FB08B1FFF7CE
:1031A000B4FC00F059F81548016841F001010160D4
:1031B000006830AA0A2100F0010035904FF4C05099
:1031C00082E83100CDE933510D4830A9FFF754FDB5
:1031D0000A480838016841F0006101600068002277
:1031E000052100F0006035906520FFF77DFF652028
:1031F000FFF76CFF37B0F0BD00000840E044025814
:1032000000000258134970B50A68D243520705D529
:10321000096801F00701814213D118E00A6822F021
:10322000070202430A60FFF755FE0A4D4FF47A7613
:103230000446083D07E000BFFFF74CFE001BB0420C
:1032400001D9012070BD2868C0438004F4D4002057
:1032500070BD00000C4802580248016841F08071BE
:10326000016070470C48025810B501F08DF905490E
:103270000968054AC1F30211515C01F01F01C84001
:1032800010BD000020440258201F01084A4930B5F3
:10329000494C0B1D0A680C3409681D68246802F04B
:1032A000030305F00102C1F30511C4F3CC040029A6
:1032B00014FB02F200EE102AF8EE400A76D0414AE2
:1032C0009FED3E1ADFED3E1AB7EE000A23B1012B47
:1032D0005AD0022B18D15CE0374C283C23689B065F
:1032E00012D5394B246801EE901A1168C4F3C10459
:1032F000F8EE612AE34001EE903AC1F30801F8EEDE
:10330000611A81EEA22A07E002EE101A1168F8EEA7
:10331000422A81EEA22A45E001EE901A1168F8EEE9
:10332000611A40EE811A71EE800A62EE200AC1F342
:10333000462101EE101AB8EE411A31EE001AC0EE25
:10334000811ABCEEE11A80ED001A1168C1F3064142
:1033500001EE101AB8EE411A31EE001AC0EE811AD1
:10336000BCEEE11A80ED011A1168C1F3066101EEAD
:10337000101AB8EE411A31EE000A80EE801ABCEE47
:10338000C10A80ED020A30BD01EE901ADFED0F2A6E
:1033900003E001EE901ADFED0E2A1168F8EE611AD3
:1033A00082EEA12AC1F30801B6E7FFE70021016020
:1033B0004160816030BD000028440258000000399F
:1033C0000024744C304402580090D0030024744A06
:1033D000001B374B494930B5484C0B1D0A68143463
:1033E00009681D68246802F00303C5F30012C1F3E5
:1033F0000531C4F3CC04002914FB02F200EE102ABC
:10340000F8EE400A75D03F4A9FED3D1AB7EE000A2C
:103410006BB1DFED3D1A012B01D0022B64D002EE1F
:10342000101A1168F8EE422A81EEA22A21E0334CEC
:10343000283C23689B0612D5344B246801EE901A71
:103440001168C4F3C104F8EE612AE34001EE903A3A
:10345000C1F30801F8EE611A81EEA22A0BE001EE39
:10346000901ADFED2B2A00BFF8EE611A116882EE88
:10347000A12AC1F3080101EE901A1168F8EE611A51
:1034800040EE811A71EE800A62EE200AC1F34621F5
:1034900001EE101AB8EE411A31EE001AC0EE811A90
:1034A000BCEEE11A80ED001A1168C1F3064101EE8D
:1034B000101AB8EE411A31EE001AC0EE811ABCEEB5
:1034C000E11A80ED011A1168C1F3066101EE101ACC
:1034D000B8EE411A31EE000A80EE801ABCEEC10A45
:1034E00080ED020A30BD04E001EE901ADFED092AFA
:1034F000BAE70021016041608160F3E72844025887
:1035000000000039384402580024744A0090D00367
:103510000024744C001B374B494930B5484C0B1DF7
:103520000A681C3409681D68246802F00303C5F3A7
:103530000022C1F30551C4F3CC04002914FB02F2AC
:1035400000EE102AF8EE400A75D03F4A9FED3D1A72
:10355000B7EE000A6BB1DFED3D1A012B01D0022B53
:1035600064D002EE101A1168F8EE422A81EEA22A07
:1035700021E0334C283C23689B0612D5344B246849
:1035800001EE901A1168C4F3C104F8EE612AE34019
:1035900001EE903AC1F30801F8EE611A81EEA22A19
:1035A0000BE001EE901ADFED2B2A00BFF8EE611A56
:1035B000116882EEA12AC1F3080101EE901A116888
:1035C000F8EE611A40EE811A71EE800A62EE200A6E
:1035D000C1F3462101EE101AB8EE411A31EE001A7D
:1035E000C0EE811ABCEEE11A80ED001A1168C1F339
:1035F000064101EE101AB8EE411A31EE001AC0EE83
:10360000811ABCEEE11A80ED011A1168C1F306615E
:1036100001EE101AB8EE411A31EE000A80EE801A5F
:10362000BCEEC10A80ED020A30BD04E001EE901A42
:10363000DFED092ABAE70021016041608160F3E70C
:103640002844025800000039404402580024744ABB
:103650000090D0030024744C001B374B2DE9F04F31
:10366000AC4A0546DFF8A8A280F48070DFF8AC927F
:1036700089B01311AA4C0843A748AAF104064FF0D9
:10368000805C4FF000582CD085F400770F4357D062
:10369000DFF87CB285F480670F430BF1080B61D033
:1036A00085F400670F4374D085F480570F436ED0C4
:1036B00085F400570F434FF480394FF4003E67D034
:1036C00085F400270F4371D085F480370F436ED007
:1036D00085F480460E436BD085F400420A4368D0DF
:1036E0002AE0DAF8001001F00701052924D2DFE80A
:1036F00001F075BC7D25B10006A8FFF7C7FD07984E
:1037000009B0BDE8F08F6846FFF764FE0098F7E760
:1037100003A8FFF701FF0398F2E72068C0F3C10098
:1037200022FA00F0ECE72268D20571D561456FD12D
:103730001846E5E74145E3D00020E1E74846DFE7EA
:10374000DAF8001001F4E07180294FD004DC002980
:1037500044D04029F0D188E0C029EFD0B1F5807F76
:10376000EAD177E0DBF8001001F46001B1F5800FD9
:103770003CD004DC91B3B1F5001FDDD175E0B1F5AB
:10378000C00FDBD0B1F5000FD6D163E001E018E047
:1037900030E0DBF8001001F0E061B1F1007F25D0EE
:1037A00008DCD9B1B1F1807FC6D15EE049E06CE0C0
:1037B00079E09CE0B1F1407FC0D0B1F1806FBBD126
:1037C00048E0DAF8001001F4E041B1F5005F0DD0F7
:1037D00005DC19B1B1F5805FAED146E094E0B1F5FA
:1037E000405FABD0B1F5804FA6D133E020688000B8
:1037F000A2D58DE7DAF8001001F4E021B1F5403FE1
:103800006CD006DC61B149457AD0714594D157E05E
:1038100037E0B1F5802F65D0B1F5A02F8CD10CE049
:1038200000F0D4FE6CE76846FFF7D4FD019867E727
:1038300003A8FFF771FE049862E721688903F1D4B9
:103840007AE7DBF8001011F440310ED0494510D072
:103850007145F5D13168256801F040516D077FF55C
:1038600062AF00297FF45FAF57E720680001E7D51A
:1038700049E720688000E3D503A8FFF74DFE0598CF
:103880003EE722689203DBD554E7306810F48030BD
:103890003AD04845D4D120680001D1D56846FFF719
:1038A00099FD02982CE7DBF8001001F0E041B1F13E
:1038B000405F13D008DC71B1614521D04145BFD1D3
:1038C00020688000B4D437E7B1F1804F0AD0B1F15D
:1038D000A04FB2D030E7FFF7C7FC11E720684007E0
:1038E000AED51AE72068C005AAD521E708E0DAF8C6
:1038F000001011F04051A0D0614505D041459FD145
:10390000206800018FD417E72068800198D5F3E67E
:10391000504402580090D003001BB7000080BB0049
:10392000004402582DE9FE4F0546DFF8E48350F8C5
:10393000081B0024F64FC943019005F128002646D4
:1039400008F12408009008011DD4A86E50B1B0F50C
:10395000801F0CD0B0F5001F0ED0B0F5401F1ED058
:1039600001240FE0386840F40030386017E0019817
:10397000022103F0E3FA03E00098022103F06EFB5A
:1039800004000CD026462888C043C00523D4A86D67
:1039900005281ED2DFE800F00C11161B1B00AA6ED2
:1039A000D8F8001021F440111143C8F80010EAE7DC
:1039B000386840F40030386009E00198002103F0D5
:1039C000BDFA03E00098002103F048FB044674B1FF
:1039D00000E0012426462888C043800528D4E86DED
:1039E00080281ED00CDC90B140280ED114E0AA6DC6
:1039F000D8F8001021F007011143C8F80010EAE7D9
:103A0000C02813D0B0F5807F10D001240FE03868B3
:103A100040F40030386009E00198002103F08EFA8C
:103A200003E00098002103F019FB04469CB12646F0
:103A30002888DFF8DC92C04309F12C0940052CD41A
:103A4000D5F8A800B0F5800F20D00DDCA0B1B0F5FE
:103A5000001F0FD115E0EA6DD8F8001021F4E071D5
:103A60001143C8F80010E3E7B0F5C00F13D0B0F56C
:103A7000000F10D001240FE0386840F400303860A7
:103A800009E00198002103F059FA03E000980021B1
:103A900003F0E4FA04467CB126462888C0430005BA
:103AA0002DD4D5F8AC00B0F1007F21D00EDCA8B148
:103AB000B0F1807F10D116E0D5F8A820D9F8001019
:103AC00021F460011143C9F80010E6E7B0F1407F2E
:103AD00013D0B0F1806F10D001240FE0386840F4AB
:103AE0000030386009E00198002103F027FA03E074
:103AF0000098002103F0B2FA044674B12646286803
:103B0000C04380011FD4E86CD8B110280FD0202802
:103B100012D0302815D0012414E0D5F8AC20D9F803
:103B2000001021F0E0611143C9F80010E7E73868A0
:103B300040F40030386004E00198022103F0FEF9FF
:103B4000044674B126462888C043C0042BD4286E8E
:103B5000B0F5005F20D00DDCA0B1B0F5805F0FD1D3
:103B600015E06B48EA6C2030016821F03001114308
:103B70000160E8E7B0F5405F13D0B0F5804F10D09A
:103B800001240FE0386840F40030386009E0019803
:103B9000002103F0D3F903E00098002103F05EFA5E
:103BA00004468CB126462888C043800429D4686E18
:103BB000B0F5403F23D010DC08B3B0F5803F14D0FF
:103BC000B0F5003F0FD115E02A6ED8F8001021F4AF
:103BD000E0411143C8F80010E5E7B0F5802F0ED0A2
:103BE000B0F5A02F0BD001240AE00198012103F0C9
:103BF000A5F903E00098012103F030FA044694B1DE
:103C000026462888C04340042AD4D5F8B000B0F135
:103C1000405F23D010DC08B3B0F1805F14D0B0F166
:103C2000005F0FD115E06A6ED8F8001021F4E02192
:103C30001143C8F80010E4E7B0F1804F0ED0B0F1A6
:103C4000A04F0BD001240AE00198012103F076F97E
:103C500003E00098012103F001FA044674B12646FE
:103C60002888C04300041FD4286FD8B1B0F1805F0A
:103C70000ED0B0F1005F10D0012414E0D5F8B020D0
:103C8000D9F8001021F0E0411143C9F80010E7E72E
:103C9000386840F40030386004E00198012103F0F6
:103CA0004DF9044674B126462868C043C0011ED4AD
:103CB000A86CD0B101280ED0022811D0032814D04E
:103CC000012413E02A6FD8F8001021F0405111436D
:103CD000C8F80010E8E7386840F40030386004E0C5
:103CE0000198022103F02AF90446ACB1264628685F
:103CF000DFF81CB0C043ABF11C0B400252D40548A6
:103D0000016841F480710160FFF7E4F8824611E038
:103D10002C44025800480258FA48AA6C016821F065
:103D2000030111430160E2E7FFF7D4F8A0EB0A00BA
:103D3000642835D8F4480068C005F5D58CBBDFF899
:103D4000C4A3B5F8B4100AF1240ADAF8000001F4AB
:103D5000407100F44070884211D0DAF80010DAF8AF
:103D6000002021F4407142F48032CAF80020DAF8D1
:103D7000002022F48032CAF80020CAF80010D5F8DA
:103D8000B400B0F5807F1AD1FFF7A4F8029012E0DA
:103D9000FFF7A0F80299411A41F2883081420AD90E
:103DA000032426462878DFF85CA3C0430AF1080AFA
:103DB000C00721D03CE0DAF800008007E8D5D5F84C
:103DC000B410C1F30120032858460DD0016821F436
:103DD0007C510160B5F8B420DAF80010C2F30B0290
:103DE0001143CAF80010DDE7C84A036802EA11125D
:103DF00023F47C511143ECE7E86F182816D005DC5A
:103E0000A0B1082808D0102804D10AE020280DD03D
:103E100028280BD001240AE00198012103F08EF834
:103E200003E00098012103F019F9044664B1264625
:103E30002878C04380071ED4A86F062819D2DFE86F
:103E400000F0160C11161616EA6FDAF8001021F0C1
:103E500038011143CAF80010EAE70198012103F084
:103E60006DF803E00098012103F0F8F804467CB1F6
:103E700000E0012426462878C04340071FD4D5F827
:103E80009400062819D2DFE800F0160C1116161659
:103E9000AA6FDAF8001021F007011143CAF80010E8
:103EA000E9E70198012103F049F803E000980121B6
:103EB00003F0D4F80446A4B100E001242646287893
:103EC000C04380062BD4D5F89000B0F1405F24D0D9
:103ED00011DC10B3B0F1805F15D0B0F1005F10D1EC
:103EE00016E0D5F89420D9F8001021F0070111430D
:103EF000C9F80010E3E7B0F1804F0ED0B0F1A04F49
:103F00000BD001240AE00198002103F017F803E028
:103F10000098022103F0A2F8044694B126462878BE
:103F2000C04340062BD4D5F89C00B0F5406F24D098
:103F300011DC10B3B0F5806F15D0B0F5006F10D163
:103F400016E0D5F89020DAF8001021F0E041114396
:103F5000CAF80010E3E7B0F5805F0ED0B0F5A05FBF
:103F60000BD001240AE00198002102F0E7FF03E0F2
:103F70000098022103F072F8044694B1264628788E
:103F8000C04300062BD4D5F8A000B0F5C04F24D014
:103F900011DC10B3B0F5005F15D0B0F5804F10D133
:103FA00016E0D5F89C20D9F8001021F4E051114317
:103FB000C9F80010E3E7B0F5004F0ED0B0F5204F80
:103FC0000BD001240AE00198002102F0B7FF03E0C2
:103FD0000098022103F042F8044654B1264628789E
:103FE000C04300071ED4D5F88400B0F5805F0AD026
:103FF0000FE0D5F8A020D9F8001021F4604111435A
:10400000C9F80010EBE70098022103F027F800B18F
:104010000126D5F88420DAF8001021F4405111432C
:10402000CAF800102878C043C00613D4D5F8980009
:10403000B0F5807F05D10098022103F00FF800B1A0
:104040000126D5F89820D9F8001021F440711143C9
:10405000C9F800102868C043000316D4D5F8A4009E
:1040600038B1B0F5803F09D0B0F5003F0BD0012446
:104070000AE00198002102F061FF03E000980221AC
:1040800002F0ECFF04468CB126462868C04340038A
:1040900022D4D5F88800B0F5801F11D0B0F5001FEC
:1040A00013D0B0F5401F15D0012414E0D5F8A4209A
:1040B000D9F8001021F440311143C9F80010E4E7A9
:1040C000386840F40030386004E00098012102F0C4
:1040D000C5FF04465CB126462868C043C00323D40C
:1040E000286DA8B1B0F5803F17D001241BE0D5F8AA
:1040F0008820DAF8001021F440111143CAF80010AA
:10410000EAE700004C44025800480258CFFFFF0085
:10411000386840F40030386004E00198022102F071
:104120000DFF0446E4B126462868C043800005D44C
:104130000098022102F092FF00B101262868C043D6
:1041400080031BD4D5F88000B0B1B0F5807F0FD0CC
:10415000B0F5007F10D0B0F5407F0DD001240CE009
:104160005A482A6D016821F4803111430160DBE770
:10417000386840F400303860ECB326462868C04305
:10418000C00207D46A6FD8F8001021F00041114333
:10419000C8F800102868C043C00008D4D5F8B8207B
:1041A000DBF8001021F480411143CBF8001028689F
:1041B000C043800207D4EA6ED8F8001021F0807165
:1041C0001143C8F800102868C04340000CD4DBF845
:1041D000001021F40041CBF80010DBF80010D5F8F6
:1041E000BC201143CBF800102868C04308D43748DE
:1041F0006A6D016800E018E021F040511143016050
:104200002868C043000208D4D5F88C20DAF80010E2
:1042100021F440011143CAF8001028790024C0435A
:1042200000F0010020430AD00FE0D5F88020DAF832
:10423000001021F440711143CAF800109EE7019864
:10424000002102F07BFE00B106462879C04300F051
:104250000200204305D10198012102F06FFE00B158
:1042600006462879C04300F00400204305D1019898
:10427000022102F063FE00B106462879C04300F037
:104280000800204305D10098002102F0E7FE00B1AC
:1042900006462879C04300F01000204305D100985D
:1042A000012102F0DBFE00B106462879C04300F090
:1042B0002000044304D10098022102F0CFFE00B98F
:1042C00016B10120BDE8FE8F0020FBE74C440258E8
:1042D0002DE9F05F04000F467ED0DFF83882D8F871
:1042E000000000F00F00B8420CD2D8F8001021F006
:1042F0000F013943C8F80010D8F8000000F00F0093
:10430000B84269D12078844D40070AD520692968D0
:1043100001F07001884204D9296821F0700101433D
:10432000296020787C4E361D00070AD56069316807
:1043300001F07001884204D9316821F07001014315
:1043400031602078C0060AD5A069316801F4E061C7
:10435000884204D9316821F4E0610143316020785A
:10436000DFF8B4B180060BF1080B0CD5E1695846B3
:10437000DBF8002002F07002914204D9026822F0BA
:1043800070020A430260207880070AD5E068296835
:1043900001F00F01884204D9296821F00F0101437F
:1043A00029602078C0073ED05B49A2682868183988
:1043B00020F47060104328606068022818D0032839
:1043C00019D00968012819D0490700294ADADFF80D
:1043D00048A1AAF1080A00E044E0DAF8002022F03F
:1043E00007020243CAF80020FEF774FD814612E07E
:1043F00009688903E9E709688901E6E7C905E4E78F
:10440000FEF768FDA0EB090141F28830814202D934
:104410000320BDE8F09F6168DAF8000000F0380082
:10442000B0EBC10FECD1207880070AD5E06829688D
:1044300001F00F01884204D2296821F00F010143E5
:104440002960D8F80010404601F00F01B9420BD99D
:10445000016821F00F0139430160006800F00F008E
:10446000B84201D00120D4E7207840070AD520695E
:10447000296801F07001884204D2296821F0700196
:1044800001432960207800070AD56069316801F08E
:104490007001884204D2316821F07001014331601B
:1044A0002078C0060AD5A069316801F4E06188422D
:1044B00004D2316821F4E061014331602078800644
:1044C0000CD5E1695846DBF8002002F070029142F9
:1044D00004D2026822F070020A43026000F09AF8E7
:1044E0000E492A682B68C2F3032203F00F038A5C8B
:1044F000C95C02F01F0201F01F01D040084A20FAF7
:1045000001F111600749086007480068BDE8F05FE5
:10451000FEF71CBD0020005218440258201F01085D
:104520002C000024280000242000002470B5144C26
:104530003F220260124A24680832131D114D04F014
:104540000704446016681C1D06F4706686601668D1
:1045500006F00F06C660126802F0700202611A6867
:1045600002F0700242611A6802F4E062826122681D
:1045700002F07002C261286800F00F00086070BD90
:10458000104402580020005230B500F043F80B4AA6
:104590000B490C4B15681468C5F3032204F00F0493
:1045A0008A5C095D02F01F0201F01F01D040064A3B
:1045B00020FA01F119601060084630BD1844025815
:1045C000201F01082C0000242800002400B5FFF75C
:1045D000DBFF05490968054AC1F30211515C01F08E
:1045E0001F01C84000BD00001C440258201F0108E4
:1045F00000B5FFF7C9FF05490968054AC1F3022163
:10460000515C01F01F01C84000BD00001C4402586D
:10461000201F0108454970B545480968434B103BC8
:1046200011F0380208D00111082A03D0102A0BD04B
:10463000182A0BD0084670BD19688906FBD5196881
:10464000C1F3C101C84070BD3A4870BD3749374D0C
:1046500018310C1D24350A68096826682D6802F097
:10466000030406F00102C1F30511C5F3CC0515FBE7
:1046700002F200EE102AB8EE400AE9B32F4ADFED4D
:104680002E0AB7EE001A6CB1DFED2D1A012C01D005
:10469000022C43D002EE101A1068F8EE422A81EE86
:1046A000A22A1EE01C68A40611D51B6801EE901A10
:1046B0001168C3F3C103F8EE612AD84001EE900AF5
:1046C000C1F30800F8EE611A81EEA22A0BE001EEB8
:1046D000901ADFED1C2A00BFF8EE611A106882EE16
:1046E000A12AC0F3080001EE900AF8EE611A40EE2C
:1046F000201A31EE810A00E015E022EE000A10686F
:10470000C0F34620401C00EE900AF8EE600A80EEEE
:10471000201ABCEEC10A10EE100A70BD01EE901A0C
:10472000DFED092AD8E7002070BD000010440258D0
:104730000090D003001BB70000000039304402583D
:104740000024744A0024744C001B374B2DE9F05FA1
:1047500004007DD0FF4F2078FE4D1837DFF8F4932A
:10476000103DC00748D0D9F80000396800F0380083
:10477000102815D0182803D101F0030002280FD00B
:104780006068B0F5803F12D010B1B0F5A02F18D0FE
:10479000286820F480302860286820F4802009E010
:1047A0002868800328D560680028D2D024E02868D3
:1047B00040F480302860606888B1FEF78BFB0646C5
:1047C00009E0286840F480202860F0E7FEF782FBCB
:1047D000801B64286FD828688003F7D50CE0FEF7AB
:1047E00079FB064605E000BFFEF774FB801B6428DA
:1047F000F0D828688003F7D4207841F20308D54E1A
:104800000C3E800769D5D9F80000396810F03800EF
:104810000ED0182801D188070AD0E06890B3296823
:1048200021F0190101432960FEF754FB824631E073
:104830002868400702D5E06800288AD0E168286827
:1048400020F0190008432860FEF744FB824607E089
:10485000DFE000BFFEF73EFBA0EB0A000228B9D85C
:1048600028684007F6D500BFFEF72EFB40451BD851
:104870002069402812D0316821F47C3141EA0030AF
:1048800030602AE018E000BFFEF724FBA0EB0A002E
:1048900002289FD828684007F6D5E5E7306820F45D
:1048A0007C3040F40030EBE7207C316821F0FE41A1
:1048B00041EA0060E4E70DE1286820F0010028608B
:1048C000FEF708FB824605E0FEF704FBA0EB0A00BA
:1048D00002288DD828684007F6D42078C0065DD518
:1048E000D9F80000DFF86CB2396800F03800ABF19D
:1048F000040B082810D0182803D101F00300012868
:104900000AD0E0690028286838D040F0800028608C
:10491000FEF7E0FA824623E02868C00523D5E06967
:10492000802876D11FE0206A202821D0316821F02C
:10493000F84141EA8060306030E000BF94F8201018
:10494000DBF8002022F07C5242EA0161CBF8001033
:1049500024E000BFFEF7BEFAA0EB0A00022898D8B8
:104960002868C005F6D5FEF7AFFA4045E6D8DAE785
:10497000306820F0F84040F08040DCE720F0800014
:104980002860FEF7A7FA064605E000BFFEF7A2FA88
:10499000801B02289DD82868C005F7D4207800071E
:1049A00029D56C486169643000298046016811D0BE
:1049B00041F001010160FEF78DFA064605E000BFF7
:1049C000FEF788FA801B0228C9D8D8F800008007B3
:1049D000F6D510E021F001010160FEF77BFA0646F2
:1049E00005E000BFFEF776FA801B022872D8D8F8DF
:1049F00000008007F6D42078800623D5A06900281F
:104A0000286810D040F480502860FEF763FA06460C
:104A100005E036E1FEF75EFA801B02285AD82868C6
:104A20008004F7D50EE020F480502860FEF752FA9B
:104A3000064604E0FEF74EFA801B02284AD8286892
:104A40008004F7D4207840074FD5DFF80C81D8F8E0
:104A5000001041F48071C8F80010FEF73BFA0646DA
:104A600005E000BFFEF736FA801B642832D8D8F87C
:104A70000000C005F6D5374EA068603601280AD080
:104A800008B1052813D0306820F00100306030688C
:104A900020F0040002E0306840F001003060A068BF
:104AA00041F2883A90B1FEF715FA80460AE0306884
:104AB00040F004003060EEE7FEF70CFAA0EB0801CE
:104AC000514507D830688007F6D50EE0FEF702FAA8
:104AD000804607E084E000BFFEF7FCF9A0EB080188
:104AE00051457DD830688007F6D4606AB0B3DFF8EE
:104AF0006480D9F8001008F120084FF6F87B08F11F
:104B00000409C1F3C2010329A8F1040A69D00228EB
:104B1000286820F08070286003D0FEF7DBF9044697
:104B200084E0FEF7D7F9064605E000BFFEF7D2F9AC
:104B3000801B022877D828688001F7D4E26A40F207
:104B4000F331386854F8283F884340EA021018438C
:104B5000386004E01044025800480258B5E0217B58
:104B6000434622894FF4FE0C208A4FF0FE4749024B
:104B7000267D521E401EA1F50071C2F308088AB2BC
:104B8000761E0CEA004042EA08020243504607EA59
:104B900006610A431A60DAF8002022F00102CAF81E
:104BA0000020D9F80020266A22EA0B0242EAC60257
:104BB000C9F80020DAF80010A26921F00C011143B5
:104BC000CAF800100168E26921F002011143016096
:104BD000016841F480310160016841F4003101E075
:104BE00021E027E00160016841F480210160016853
:104BF00041F001010160286840F080702860FEF7F4
:104C000069F9044605E000BFFEF764F9001B0228BD
:104C100009D828688001F7D557E000BFFEF75AF998
:104C2000001B022802D90320BDE8F09F28688001FC
:104C3000F4D44AE039680128D8F8000021D0A26AEB
:104C400001F0030393421CD1E26AC1F305118A42C9
:104C500017D1216BC0F30802491E8A4211D1616B42
:104C6000C0F34622491E91420BD1A16BC0F306420C
:104C7000491E914205D1E16BC0F30660491E814295
:104C800001D00120D0E7A16C4E46D9F80000C0F356
:104C9000CC00814219D0DAF80000554620F001001E
:104CA000CAF80000FEF716F94FEA0007FEF712F9FE
:104CB000B842FBD0A26C306820EA0B0040EAC20088
:104CC0003060286840F0010028600020ACE7000058
:104CD00010B50B4601680F48002A496801EA000137
:104CE00001F03F044FEA1140D870C1F304225A701A
:104CF0009C70C1F3423119700AD102F03FFAD870AA
:104D0000587802F03BFA5870987802F037FA9870A9
:104D1000002010BD3FFFFF0010B50B460168134C8B
:104D2000002A896A596001680969C1F30E01996016
:104D30000068016801EA040101F07F04C1F3054045
:104D40001870C1F306225A709C704FEA9151D970C5
:104D50000AD102F013FA1870587802F00FFA58705E
:104D6000987802F00BFA9870002010BD7F7F7F00CA
:104D700070B504004FF0010041D094F8210028B92B
:104D8000002084F82000204600F042F8022084F839
:104D900021002068C168C943C90631D5CA224262D0
:104DA000532120684162204602F0FEF918BB2068BA
:104DB000164A816811408160D4E90003A56922691F
:104DC00081682A4319431143816022682189E06880
:104DD00040EA01401061204602F00AFA58B9216801
:104DE000CA6C22F00302CA6422686369E169D56C67
:104DF00019432943D1642268FF21516208B170BD73
:104E00000020012184F8211070BD0000BFFF8FFF3A
:104E100010B5B0B00446C0216846FBF7B6FF0B4999
:104E20002068884210D1010200204A132D92CDE95A
:104E300000106846FEF776FD08B1FDF766FE0448EF
:104E4000016841F40041016030B010BD00400058DD
:104E50007044025870B5044690F820000B460128B3
:104E60001BD0012684F82060022084F821005878A5
:104E7000AAB1DA78000299781B7841EA024540EA43
:104E8000433005432268CA21532051622168486299
:104E9000204602F089F9C8B11FE0022070BDC106AA
:104EA00003D500F0EF000A305870D87802F06FF99F
:104EB0000204587802F06BF942EA0022987802F076
:104EC00066F91978024342EA4135DBE72168084870
:104ED00005404D60204602F08BF92268FF215162A7
:104EE00008B984F82160002184F8201070BD00000A
:104EF0003FFFFF002DE9F041044690F82000904666
:104F00000D46012812D0012784F82070022184F870
:104F10002110CA2022685321506220684162204635
:104F200002F042F94FF0000618B12AE00220BDE875
:104F3000F0812068B8F1000F80684FEA406025D00A
:104F4000002800DBEE7068782A78A978EB784FEAC1
:104F5000002C41EA02404CEA835108432268184978
:104F6000084010602068816821F4802181602168F8
:104F7000D5E903028B68104318438860204602F08D
:104F800037F92268FF215162A0B115E0002800DB4B
:104F9000EE70287802F0FBF80204687802F0F7F867
:104FA00042EA0022A87802F0F2F8E978024342EAE5
:104FB0008150D3E784F8217084F82060B7E70000BF
:104FC0007F7F7F0070B5016804460B48C860FDF71D
:104FD00081FF4FF47A76054607E000BFFDF77AFFC0
:104FE000401BB04201D9032070BD2068C068800614
:104FF000F4D5002070BD00005FFF030070477047CC
:10500000704770472DE9FC5F0446806B0E46032114
:1050100084F83010002703285CD0B6F5004F59D033
:10502000B6F5804F4FF000054FF400684FF08069EF
:1050300004D006B3606B40F000603FE000950021B3
:105040000195206802F050FC80011CD4694620467E
:1050500002F0A4FC70BB019840032DD5B4F84410B5
:105060002068090402F0F4F820BB206802211DE04A
:10507000606B284322E0009500210195206802F032
:1050800033FC800101D54546F2E76946204602F02F
:1050900085FC78B90198C0030ED5B4F84410206897
:1050A000090402F0D5F828B92068002102F01AF9A5
:1050B0000028DDD00546DBE74D46D9E76063606B2D
:1050C0004FF4007BDFF8B8A040B121680127C1F898
:1050D00038A042E0606B40F08050EFE700214FF4D1
:1050E0008030FEF7BBFA010032D0264D3346D4E9BA
:1050F00004C0B1FBF5F8D4E90192804510D9A66D42
:105100005E450DD0B6F5807F11D04FEA6506E0B15F
:105110004FEA4008B1FBF8F8B04501D9B1FBF5F012
:105120004946CDE900C0206802F0E2FB15E0164ECA
:1051300030B14FEA4008B1FBF8F8A84502D8EFE7D4
:10514000A942EDD9B1FBF6F0EAE7B142E6D8E7E7CC
:10515000606B012740F0006060632068594602F0F0
:10516000A8F830B122680127C2F838A0616B01436A
:105170006163012084F830003846BDE8FC9F0000E0
:10518000FF0FE01F80F0FA0200E1F5057047000014
:10519000F0B5C26D920F0A70C26DC2F383624A709D
:1051A000C26DC2F301628A70C26D120CCA70B0F88F
:1051B0005C20120A0A7190F85C204A71026E120D8E
:1051C000CA80026EC2F303420A72B0F86020C2F3D2
:1051D000C0324A72B0F86020C2F380328A72B0F8EE
:1051E0006020C2F34032CA72B0F860200026C2F3D9
:1051F00000320A734E730122836B4FF4007463B163
:10520000012B3AD0036850499963416B41F08051BA
:10521000416380F830200120F0BDB0F86030456E69
:105220009B051B0D43EA95730B61436EC3F3C26389
:105230000B75436EC3F302634B75436EC3F3425366
:105240008B75436EC3F38243CB75436EC3F3C23396
:105250000B760D696D1C85640B7E03F007039B1CA8
:105260009D4085640B7A446503F00F0302FA03F353
:105270005F0A7D43C0E913350EE090F86050436E3D
:10528000AD06AD0A45EA13430B610B695B1C9B023B
:105290008364C0E913434465B0F86430C3F38033DA
:1052A0004B76B0F86430C3F3C6138B7690F8643055
:1052B00003F07F03CB76836EDB0F0B77836EC3F334
:1052C00041734B77836EC3F382638B77836EC3F333
:1052D0008353CB77836EC3F3405381F8203081F83A
:1052E0002160836EC3F3004381F82230B0F8683048
:1052F000C3F3C03381F82330B0F86830C3F3803390
:1053000081F82430B0F86830C3F3403381F8253099
:10531000B0F86830C3F3003381F82630B0F8683055
:10532000C3F3812381F82730B0F86830C3F3012339
:1053300081F8283090F86800C0F3460081F8290011
:1053400081F82A200020F0BDFF0FE01F826B0A6069
:10535000C26B4A60026C8A60426CCA60826C0A61ED
:10536000C26C4A61026D8A61406DC861002070475D
:1053700070B5B0F84410002504460068090402F036
:105380009EF818B1616B0143616304E0206800215D
:1053900002F0AAFA0546C5F3432070BD2DE9F0419D
:1053A000054690F8300090B00C460026032810D037
:1053B0006946284602F03AFC2A4F4FF0010860B1D6
:1053C0002A68012697636A6B02436A6385F8308016
:1053D00039E0012010B0BDE8F08100994FF47F4022
:1053E000C1F3811121700099C1F3401161700099DE
:1053F00000EA112242EA11616180019909BA6160F3
:10540000029921720299090A61720299C1F303514A
:10541000A172DDE9022100EA1240C9B20843A0816D
:105420000398C0F38520A0730398C0F30120E073B4
:105430000398C0F303102074039800F00F00607409
:105440000498000EA07428684FF4007101F031FF39
:1054500028B12A6801269763686385F83080304652
:10546000B8E70000FF0FE01F2DE9F843044600688D
:10547000E56A416B09041BD5290719D5D4E9095000
:10548000202813D30026206802F048FA020A287068
:10549000010C6A70030EA970761CEB70082E05F1E2
:1054A0000405F0D3A06A2038C4E90950BDE8F883A8
:1054B000416B0127DFF8EC810026C90551D539027F
:1054C0004CF23A12816329072068C16B21EA02017C
:1054D000C1632068C16B21F08051C1632068C1683D
:1054E00021F04001C16018D515F0220F09D02068C5
:1054F00002F032F828B1616B014361632046FFF787
:1055000045FE2168AA07C1F8388084F83070E66249
:1055100023D1204600F03EFAC8E72806C6D5206809
:1055200015F0220F86622068C6622068066509D0E1
:10553000206802F011F828B1616B014361632046D5
:10554000FFF724FE15F0300F84F83070E66202D0C9
:10555000204600F01FFAA807A8D0204600F016FA4F
:10556000A4E7416B490421D529071FD5D4E9075089
:1055700020289BD3002628780090697840EA0120F3
:105580000090A97840EA01400090E9782D1D40EA9A
:10559000016000902068694602F0D8F9761C082E58
:1055A000E9D3206A2038C4E907507FE7416B11F046
:1055B0003A0F416B58D0890703D5616B41F0020166
:1055C0006163416B090703D5616B41F008016163B9
:1055D000416B890603D5616B41F020016163416B2A
:1055E000C90603D5616B41F010016163C0F83880D2
:1055F0002068C16B21F49D71C1632068C16821F0EE
:105600004001C1602068C16A41F40051C162206854
:10561000C16841F08001C160206801F09DFF626BAC
:105620002B074FF4006140EA020060632068C26803
:1056300022F08002C2602068816303D584F8307054
:10564000E6620DE028068BD5606B002888D02068C4
:10565000C16B21F08051C1632068066584F8307009
:105660002046FFF793FD21E7C9009ED54FF08051FA
:1056700081632068006D40074FEA856008D40028E8
:10568000204602DAFFF7BDFC10E7FFF7B8FC0DE794
:105690000028204602DAFFF7B3FC07E7FFF7AEFC6D
:1056A00004E700003A0F0018F0B5040085B020D0E0
:1056B00094F83000002518B92046257600F098F8B7
:1056C000042084F83000204600F03CF888B9694690
:1056D0002046FFF763FE60B99DF81010A26B9DF89D
:1056E0001100012A08D0A5652046E168FFF78AFC71
:1056F00058B1012005B0F0BD014302D04FF4007055
:1057000001E04FF48070A065EEE7FDF7E3FB0127B1
:10571000064604E0FDF7DEFB801B401C0AD0204655
:10572000FFF726FE0428F5D16563E56284F8307042
:105730000020DFE74FF00040606384F83070032002
:10574000D8E700002DE9FC414FF0000804464FF473
:1057500080304146FDF782FF05004FF0010723D05E
:105760002048434642464146B5FBF0F6CDE9008667
:10577000206802F0BDF8206802F0CAF81EB170007F
:10578000B5FBF0F52DB11848B0FBF5F0401CFDF766
:1057900061FA204602F0F0F960B100BF84F8307081
:1057A000616B0143616319E04FF0006084F8307071
:1057B000606313E0204602F063F90028EED1206810
:1057C0004FF4007101F075FD002808D022680749E8
:1057D0009163616B0143616384F830700120BDE81F
:1057E000FC81000000350C0010210100FF0FE01FBC
:1057F000F0B5B7B00446142130A8FBF7C6FAC021B3
:105800006846FBF7C2FA27492068884247D1002042
:1058100014904FF480310446CDE900106846FEF73D
:1058200081F808B1FDF771F91F48016841F4803132
:105830000160006800F4803035901B480C3001682E
:1058400041F004010160016801F004013591016833
:1058500041F0080101600068022532AA00F008004A
:1058600035904FF4F850CDE9300503260F480C274A
:1058700082E8D00030A9FDF7FFF9042032AACDE973
:1058800030050B4830A982E8D000FDF7F5F9002279
:1058900005213120FDF728FC3120FDF717FC37B03A
:1058A000F0BD000000700052D444025800080258B5
:1058B000000C02582DE9F0430F001E4687B0044645
:1058C000154607D094F83000012807D0022007B011
:1058D000BDE8F083606B40F0006008E0216D0020BF
:1058E000AA1960638A4204D9606B40F0007060635B
:1058F00041E0032184F8301022687102D062C4E9CB
:105900000971A26B012A00D06D024FF0020C9023A6
:105910000293CDE903C04FF0FF320590CDE900219D
:1059200080462068694601F075FE2068012E4FF020
:105930000109C26842F04002C260206887652068A1
:10594000C0F8509006D98220E0622068294601F014
:1059500021FD05E08120E0622068294601F034FD48
:1059600058B125680849A963616B0143616384F8F4
:105970003090C4F82C800120A9E72068C16B41F465
:105980009571C1630020A2E7FF0FE01F10B5FDF77E
:105990001BF810BD10B5FDF733F810BD2DE9F04729
:1059A0000F001E4686B00446154607D094F8300016
:1059B000012807D0022006B0BDE8F087606B40F0F8
:1059C000006008E0216D0020AA1960638A4204D9B2
:1059D000606B40F00070606340E0032184F8301099
:1059E00022687102D062C4E90771A26B012A00D05B
:1059F0006D024FF0FF324FF0900A0590CDE902A002
:105A0000CDE90021049080462068694601F002FE3D
:105A10002068C16841F04001C16020684FF0010971
:105A20008765012E2168C1F8509006D9A020E06258
:105A30002068294601F0BAFD05E0C4F82CA02946EB
:105A4000206801F0CDFD58B12568094AAA63626B50
:105A50000243626384F83090C4F82C800120AAE7E6
:105A60002068C16B41F48D71C1630020A3E7000081
:105A7000FF0FE01F2DE9F047040029D0594A4FF0ED
:105A800000092068584B594D9042C4F8289006D020
:105A9000984204D0A84202D0E1680F2918D8E168E2
:105AA0004FF0010AE76B0831C9080AEB571671433A
:105AB000904205D0984203D0A84201D0082907D8C7
:105AC000904203D0984201D0A84204D1102902D9B3
:105AD0000120BDE8F08794F8810020B9204684F8C1
